{
  "_format": "hh-sol-artifact-1",
  "contractName": "Create",
  "sourceName": "contracts/VotingContract.sol",
  "abi": [
    {
      "inputs": [],
      "stateMutability": "nonpayable",
      "type": "constructor"
    },
    {
      "anonymous": false,
      "inputs": [
        {
          "indexed": true,
          "internalType": "uint256",
          "name": "candidateId",
          "type": "uint256"
        },
        {
          "indexed": false,
          "internalType": "string",
          "name": "age",
          "type": "string"
        },
        {
          "indexed": false,
          "internalType": "string",
          "name": "name",
          "type": "string"
        },
        {
          "indexed": false,
          "internalType": "string",
          "name": "image",
          "type": "string"
        },
        {
          "indexed": false,
          "internalType": "uint256",
          "name": "voteCount",
          "type": "uint256"
        },
        {
          "indexed": false,
          "internalType": "address",
          "name": "_address",
          "type": "address"
        },
        {
          "indexed": false,
          "internalType": "string",
          "name": "ipfs",
          "type": "string"
        }
      ],
      "name": "CandidateCreate",
      "type": "event"
    },
    {
      "anonymous": false,
      "inputs": [
        {
          "indexed": true,
          "internalType": "uint256",
          "name": "voter_voterId",
          "type": "uint256"
        },
        {
          "indexed": false,
          "internalType": "string",
          "name": "voter_name",
          "type": "string"
        },
        {
          "indexed": false,
          "internalType": "string",
          "name": "voter_image",
          "type": "string"
        },
        {
          "indexed": false,
          "internalType": "address",
          "name": "voter_address",
          "type": "address"
        },
        {
          "indexed": false,
          "internalType": "uint256",
          "name": "voter_allowed",
          "type": "uint256"
        },
        {
          "indexed": false,
          "internalType": "bool",
          "name": "voter_voted",
          "type": "bool"
        },
        {
          "indexed": false,
          "internalType": "uint256",
          "name": "voter_vote",
          "type": "uint256"
        },
        {
          "indexed": false,
          "internalType": "string",
          "name": "voter_ipfs",
          "type": "string"
        }
      ],
      "name": "VoterCreated",
      "type": "event"
    },
    {
      "inputs": [],
      "name": "_candidateId",
      "outputs": [
        {
          "internalType": "uint256",
          "name": "_value",
          "type": "uint256"
        }
      ],
      "stateMutability": "view",
      "type": "function"
    },
    {
      "inputs": [],
      "name": "_voterId",
      "outputs": [
        {
          "internalType": "uint256",
          "name": "_value",
          "type": "uint256"
        }
      ],
      "stateMutability": "view",
      "type": "function"
    },
    {
      "inputs": [
        {
          "internalType": "uint256",
          "name": "",
          "type": "uint256"
        }
      ],
      "name": "candidateAdress",
      "outputs": [
        {
          "internalType": "address",
          "name": "",
          "type": "address"
        }
      ],
      "stateMutability": "view",
      "type": "function"
    },
    {
      "inputs": [
        {
          "internalType": "address",
          "name": "",
          "type": "address"
        }
      ],
      "name": "candidates",
      "outputs": [
        {
          "internalType": "uint256",
          "name": "candidateId",
          "type": "uint256"
        },
        {
          "internalType": "string",
          "name": "age",
          "type": "string"
        },
        {
          "internalType": "string",
          "name": "name",
          "type": "string"
        },
        {
          "internalType": "string",
          "name": "image",
          "type": "string"
        },
        {
          "internalType": "uint256",
          "name": "voteCount",
          "type": "uint256"
        },
        {
          "internalType": "address",
          "name": "_address",
          "type": "address"
        },
        {
          "internalType": "string",
          "name": "ipfs",
          "type": "string"
        }
      ],
      "stateMutability": "view",
      "type": "function"
    },
    {
      "inputs": [],
      "name": "getCandidate",
      "outputs": [
        {
          "internalType": "address[]",
          "name": "",
          "type": "address[]"
        }
      ],
      "stateMutability": "view",
      "type": "function"
    },
    {
      "inputs": [],
      "name": "getCandidateLenght",
      "outputs": [
        {
          "internalType": "uint256",
          "name": "",
          "type": "uint256"
        }
      ],
      "stateMutability": "view",
      "type": "function"
    },
    {
      "inputs": [
        {
          "internalType": "address",
          "name": "_address",
          "type": "address"
        }
      ],
      "name": "getCandidatedata",
      "outputs": [
        {
          "internalType": "string",
          "name": "",
          "type": "string"
        },
        {
          "internalType": "string",
          "name": "",
          "type": "string"
        },
        {
          "internalType": "uint256",
          "name": "",
          "type": "uint256"
        },
        {
          "internalType": "string",
          "name": "",
          "type": "string"
        },
        {
          "internalType": "uint256",
          "name": "",
          "type": "uint256"
        },
        {
          "internalType": "string",
          "name": "",
          "type": "string"
        },
        {
          "internalType": "address",
          "name": "",
          "type": "address"
        }
      ],
      "stateMutability": "view",
      "type": "function"
    },
    {
      "inputs": [],
      "name": "getVotedVoterList",
      "outputs": [
        {
          "internalType": "address[]",
          "name": "",
          "type": "address[]"
        }
      ],
      "stateMutability": "view",
      "type": "function"
    },
    {
      "inputs": [
        {
          "internalType": "address",
          "name": "_address",
          "type": "address"
        }
      ],
      "name": "getVoterData",
      "outputs": [
        {
          "internalType": "uint256",
          "name": "",
          "type": "uint256"
        },
        {
          "internalType": "string",
          "name": "",
          "type": "string"
        },
        {
          "internalType": "string",
          "name": "",
          "type": "string"
        },
        {
          "internalType": "address",
          "name": "",
          "type": "address"
        },
        {
          "internalType": "bool",
          "name": "",
          "type": "bool"
        },
        {
          "internalType": "uint256",
          "name": "",
          "type": "uint256"
        },
        {
          "internalType": "string",
          "name": "",
          "type": "string"
        }
      ],
      "stateMutability": "view",
      "type": "function"
    },
    {
      "inputs": [],
      "name": "getVoterLength",
      "outputs": [
        {
          "internalType": "uint256",
          "name": "",
          "type": "uint256"
        }
      ],
      "stateMutability": "view",
      "type": "function"
    },
    {
      "inputs": [],
      "name": "getVoterList",
      "outputs": [
        {
          "internalType": "address[]",
          "name": "",
          "type": "address[]"
        }
      ],
      "stateMutability": "view",
      "type": "function"
    },
    {
      "inputs": [
        {
          "internalType": "address",
          "name": "_address",
          "type": "address"
        },
        {
          "internalType": "string",
          "name": "_age",
          "type": "string"
        },
        {
          "internalType": "string",
          "name": "_name",
          "type": "string"
        },
        {
          "internalType": "string",
          "name": "_image",
          "type": "string"
        },
        {
          "internalType": "string",
          "name": "_ipfs",
          "type": "string"
        }
      ],
      "name": "setCandidate",
      "outputs": [],
      "stateMutability": "nonpayable",
      "type": "function"
    },
    {
      "inputs": [
        {
          "internalType": "address",
          "name": "_candidateAddress",
          "type": "address"
        },
        {
          "internalType": "uint256",
          "name": "_candidateVoteId",
          "type": "uint256"
        }
      ],
      "name": "vote",
      "outputs": [],
      "stateMutability": "nonpayable",
      "type": "function"
    },
    {
      "inputs": [
        {
          "internalType": "uint256",
          "name": "",
          "type": "uint256"
        }
      ],
      "name": "votedVoters",
      "outputs": [
        {
          "internalType": "address",
          "name": "",
          "type": "address"
        }
      ],
      "stateMutability": "view",
      "type": "function"
    },
    {
      "inputs": [
        {
          "internalType": "string",
          "name": "_name",
          "type": "string"
        },
        {
          "internalType": "string",
          "name": "_image",
          "type": "string"
        },
        {
          "internalType": "address",
          "name": "_address",
          "type": "address"
        },
        {
          "internalType": "string",
          "name": "_ipfs",
          "type": "string"
        }
      ],
      "name": "voterRight",
      "outputs": [],
      "stateMutability": "nonpayable",
      "type": "function"
    },
    {
      "inputs": [
        {
          "internalType": "address",
          "name": "",
          "type": "address"
        }
      ],
      "name": "voters",
      "outputs": [
        {
          "internalType": "uint256",
          "name": "voter_voterId",
          "type": "uint256"
        },
        {
          "internalType": "string",
          "name": "voter_name",
          "type": "string"
        },
        {
          "internalType": "string",
          "name": "voter_image",
          "type": "string"
        },
        {
          "internalType": "address",
          "name": "voter_address",
          "type": "address"
        },
        {
          "internalType": "uint256",
          "name": "voter_allowed",
          "type": "uint256"
        },
        {
          "internalType": "bool",
          "name": "voter_voted",
          "type": "bool"
        },
        {
          "internalType": "uint256",
          "name": "voter_vote",
          "type": "uint256"
        },
        {
          "internalType": "string",
          "name": "voter_ipfs",
          "type": "string"
        }
      ],
      "stateMutability": "view",
      "type": "function"
    },
    {
      "inputs": [
        {
          "internalType": "uint256",
          "name": "",
          "type": "uint256"
        }
      ],
      "name": "votersAddress",
      "outputs": [
        {
          "internalType": "address",
          "name": "",
          "type": "address"
        }
      ],
      "stateMutability": "view",
      "type": "function"
    },
    {
      "inputs": [],
      "name": "votingOrganizer",
      "outputs": [
        {
          "internalType": "address",
          "name": "",
          "type": "address"
        }
      ],
      "stateMutability": "view",
      "type": "function"
    }
  ],
  "bytecode": "0x608060405234801561001057600080fd5b5033600260006101000a81548173ffffffffffffffffffffffffffffffffffffffff021916908373ffffffffffffffffffffffffffffffffffffffff1602179055506126e3806100616000396000f3fe608060405234801561001057600080fd5b50600436106101165760003560e01c80638fb4cd80116100a2578063b28d92ae11610071578063b28d92ae1461031c578063b63c82ca1461033a578063b9be315214610370578063c91ec7121461038e578063e9c22e18146103aa57610116565b80638fb4cd8014610261578063a3ec138d14610297578063a7388967146102ce578063b10abb36146102ec57610116565b80635f74bbde116100e95780635f74bbde146101a357806370218b85146101bf5780637831ffb3146101dd5780638ab66a901461020d5780638e9456851461024357610116565b806305ad45a41461011b57806307b3a81f1461013957806343242daa146101555780635cc48aa714610185575b600080fd5b6101236103c8565b6040516101309190611ab1565b60405180910390f35b610153600480360381019061014e9190611c84565b6103d5565b005b61016f600480360381019061016a9190611d6b565b610662565b60405161017c9190611da7565b60405180910390f35b61018d6106a1565b60405161019a9190611da7565b60405180910390f35b6101bd60048036038101906101b89190611dc2565b6106c7565b005b6101c761088f565b6040516101d49190611ec0565b60405180910390f35b6101f760048036038101906101f29190611d6b565b61091d565b6040516102049190611da7565b60405180910390f35b61022760048036038101906102229190611ee2565b61095c565b60405161023a9796959493929190611f97565b60405180910390f35b61024b610bde565b6040516102589190611ec0565b60405180910390f35b61027b60048036038101906102769190611ee2565b610c6c565b60405161028e979695949392919061203d565b60405180910390f35b6102b160048036038101906102ac9190611ee2565b611034565b6040516102c59897969594939291906120c1565b60405180910390f35b6102d6611241565b6040516102e39190611ab1565b60405180910390f35b61030660048036038101906103019190611d6b565b61124d565b6040516103139190611da7565b60405180910390f35b61032461128c565b6040516103319190611ec0565b60405180910390f35b610354600480360381019061034f9190611ee2565b61131a565b6040516103679796959493929190612154565b60405180910390f35b610378611761565b6040516103859190611ab1565b60405180910390f35b6103a860048036038101906103a391906121df565b61176d565b005b6103b26119c4565b6040516103bf9190611ab1565b60405180910390f35b6000600680549050905090565b3373ffffffffffffffffffffffffffffffffffffffff16600260009054906101000a900473ffffffffffffffffffffffffffffffffffffffff1673ffffffffffffffffffffffffffffffffffffffff1614610465576040517f08c379a000000000000000000000000000000000000000000000000000000000815260040161045c9061233c565b60405180910390fd5b61046f60006119d1565b600061047b60006119e7565b90506000600760008573ffffffffffffffffffffffffffffffffffffffff1673ffffffffffffffffffffffffffffffffffffffff168152602001908152602001600020905060008160040154146104d157600080fd5b60018160040181905550858160010190805190602001906104f39291906119f5565b508481600201908051906020019061050c9291906119f5565b50838160030160006101000a81548173ffffffffffffffffffffffffffffffffffffffff021916908373ffffffffffffffffffffffffffffffffffffffff1602179055508181600001819055506103e8816006018190555060008160050160006101000a81548160ff021916908315150217905550828160070190805190602001906105999291906119f5565b506006849080600181540180825580915050600190039060005260206000200160009091909190916101000a81548173ffffffffffffffffffffffffffffffffffffffff021916908373ffffffffffffffffffffffffffffffffffffffff160217905550817ff5f39971dd62d9929e3a9feaa6bb77fe7c7da0001babff8a65a7e51ad0201c1987878785600401548660050160009054906101000a900460ff1687600601548a604051610652979695949392919061235c565b60405180910390a2505050505050565b6006818154811061067257600080fd5b906000526020600020016000915054906101000a900473ffffffffffffffffffffffffffffffffffffffff1681565b600260009054906101000a900473ffffffffffffffffffffffffffffffffffffffff1681565b6000600760003373ffffffffffffffffffffffffffffffffffffffff1673ffffffffffffffffffffffffffffffffffffffff16815260200190815260200160002090508060050160009054906101000a900460ff161561075c576040517f08c379a00000000000000000000000000000000000000000000000000000000081526004016107539061242c565b60405180910390fd5b6000816004015414156107a4576040517f08c379a000000000000000000000000000000000000000000000000000000000815260040161079b90612498565b60405180910390fd5b60018160050160006101000a81548160ff0219169083151502179055508181600601819055506005339080600181540180825580915050600190039060005260206000200160009091909190916101000a81548173ffffffffffffffffffffffffffffffffffffffff021916908373ffffffffffffffffffffffffffffffffffffffff1602179055508060040154600460008573ffffffffffffffffffffffffffffffffffffffff1673ffffffffffffffffffffffffffffffffffffffff168152602001908152602001600020600401600082825461088391906124e7565b92505081905550505050565b6060600380548060200260200160405190810160405280929190818152602001828054801561091357602002820191906000526020600020905b8160009054906101000a900473ffffffffffffffffffffffffffffffffffffffff1673ffffffffffffffffffffffffffffffffffffffff16815260200190600101908083116108c9575b5050505050905090565b6005818154811061092d57600080fd5b906000526020600020016000915054906101000a900473ffffffffffffffffffffffffffffffffffffffff1681565b60046020528060005260406000206000915090508060000154908060010180546109859061256c565b80601f01602080910402602001604051908101604052809291908181526020018280546109b19061256c565b80156109fe5780601f106109d3576101008083540402835291602001916109fe565b820191906000526020600020905b8154815290600101906020018083116109e157829003601f168201915b505050505090806002018054610a139061256c565b80601f0160208091040260200160405190810160405280929190818152602001828054610a3f9061256c565b8015610a8c5780601f10610a6157610100808354040283529160200191610a8c565b820191906000526020600020905b815481529060010190602001808311610a6f57829003601f168201915b505050505090806003018054610aa19061256c565b80601f0160208091040260200160405190810160405280929190818152602001828054610acd9061256c565b8015610b1a5780601f10610aef57610100808354040283529160200191610b1a565b820191906000526020600020905b815481529060010190602001808311610afd57829003601f168201915b5050505050908060040154908060050160009054906101000a900473ffffffffffffffffffffffffffffffffffffffff1690806006018054610b5b9061256c565b80601f0160208091040260200160405190810160405280929190818152602001828054610b879061256c565b8015610bd45780601f10610ba957610100808354040283529160200191610bd4565b820191906000526020600020905b815481529060010190602001808311610bb757829003601f168201915b5050505050905087565b60606005805480602002602001604051908101604052809291908181526020018280548015610c6257602002820191906000526020600020905b8160009054906101000a900473ffffffffffffffffffffffffffffffffffffffff1673ffffffffffffffffffffffffffffffffffffffff1681526020019060010190808311610c18575b5050505050905090565b600060608060008060006060600760008973ffffffffffffffffffffffffffffffffffffffff1673ffffffffffffffffffffffffffffffffffffffff16815260200190815260200160002060000154600760008a73ffffffffffffffffffffffffffffffffffffffff1673ffffffffffffffffffffffffffffffffffffffff168152602001908152602001600020600101600760008b73ffffffffffffffffffffffffffffffffffffffff1673ffffffffffffffffffffffffffffffffffffffff168152602001908152602001600020600201600760008c73ffffffffffffffffffffffffffffffffffffffff1673ffffffffffffffffffffffffffffffffffffffff16815260200190815260200160002060030160009054906101000a900473ffffffffffffffffffffffffffffffffffffffff16600760008d73ffffffffffffffffffffffffffffffffffffffff1673ffffffffffffffffffffffffffffffffffffffff16815260200190815260200160002060050160009054906101000a900460ff16600760008e73ffffffffffffffffffffffffffffffffffffffff1673ffffffffffffffffffffffffffffffffffffffff16815260200190815260200160002060040154600760008f73ffffffffffffffffffffffffffffffffffffffff1673ffffffffffffffffffffffffffffffffffffffff168152602001908152602001600020600701858054610e839061256c565b80601f0160208091040260200160405190810160405280929190818152602001828054610eaf9061256c565b8015610efc5780601f10610ed157610100808354040283529160200191610efc565b820191906000526020600020905b815481529060010190602001808311610edf57829003601f168201915b50505050509550848054610f0f9061256c565b80601f0160208091040260200160405190810160405280929190818152602001828054610f3b9061256c565b8015610f885780601f10610f5d57610100808354040283529160200191610f88565b820191906000526020600020905b815481529060010190602001808311610f6b57829003601f168201915b50505050509450808054610f9b9061256c565b80601f0160208091040260200160405190810160405280929190818152602001828054610fc79061256c565b80156110145780601f10610fe957610100808354040283529160200191611014565b820191906000526020600020905b815481529060010190602001808311610ff757829003601f168201915b505050505090509650965096509650965096509650919395979092949650565b600760205280600052604060002060009150905080600001549080600101805461105d9061256c565b80601f01602080910402602001604051908101604052809291908181526020018280546110899061256c565b80156110d65780601f106110ab576101008083540402835291602001916110d6565b820191906000526020600020905b8154815290600101906020018083116110b957829003601f168201915b5050505050908060020180546110eb9061256c565b80601f01602080910402602001604051908101604052809291908181526020018280546111179061256c565b80156111645780601f1061113957610100808354040283529160200191611164565b820191906000526020600020905b81548152906001019060200180831161114757829003601f168201915b5050505050908060030160009054906101000a900473ffffffffffffffffffffffffffffffffffffffff16908060040154908060050160009054906101000a900460ff16908060060154908060070180546111be9061256c565b80601f01602080910402602001604051908101604052809291908181526020018280546111ea9061256c565b80156112375780601f1061120c57610100808354040283529160200191611237565b820191906000526020600020905b81548152906001019060200180831161121a57829003601f168201915b5050505050905088565b60018060000154905081565b6003818154811061125d57600080fd5b906000526020600020016000915054906101000a900473ffffffffffffffffffffffffffffffffffffffff1681565b6060600680548060200260200160405190810160405280929190818152602001828054801561131057602002820191906000526020600020905b8160009054906101000a900473ffffffffffffffffffffffffffffffffffffffff1673ffffffffffffffffffffffffffffffffffffffff16815260200190600101908083116112c6575b5050505050905090565b60608060006060600060606000600460008973ffffffffffffffffffffffffffffffffffffffff1673ffffffffffffffffffffffffffffffffffffffff168152602001908152602001600020600101600460008a73ffffffffffffffffffffffffffffffffffffffff1673ffffffffffffffffffffffffffffffffffffffff168152602001908152602001600020600201600460008b73ffffffffffffffffffffffffffffffffffffffff1673ffffffffffffffffffffffffffffffffffffffff16815260200190815260200160002060000154600460008c73ffffffffffffffffffffffffffffffffffffffff1673ffffffffffffffffffffffffffffffffffffffff168152602001908152602001600020600301600460008d73ffffffffffffffffffffffffffffffffffffffff1673ffffffffffffffffffffffffffffffffffffffff16815260200190815260200160002060040154600460008e73ffffffffffffffffffffffffffffffffffffffff1673ffffffffffffffffffffffffffffffffffffffff168152602001908152602001600020600601600460008f73ffffffffffffffffffffffffffffffffffffffff1673ffffffffffffffffffffffffffffffffffffffff16815260200190815260200160002060050160009054906101000a900473ffffffffffffffffffffffffffffffffffffffff168680546115249061256c565b80601f01602080910402602001604051908101604052809291908181526020018280546115509061256c565b801561159d5780601f106115725761010080835404028352916020019161159d565b820191906000526020600020905b81548152906001019060200180831161158057829003601f168201915b505050505096508580546115b09061256c565b80601f01602080910402602001604051908101604052809291908181526020018280546115dc9061256c565b80156116295780601f106115fe57610100808354040283529160200191611629565b820191906000526020600020905b81548152906001019060200180831161160c57829003601f168201915b5050505050955083805461163c9061256c565b80601f01602080910402602001604051908101604052809291908181526020018280546116689061256c565b80156116b55780601f1061168a576101008083540402835291602001916116b5565b820191906000526020600020905b81548152906001019060200180831161169857829003601f168201915b505050505093508180546116c89061256c565b80601f01602080910402602001604051908101604052809291908181526020018280546116f49061256c565b80156117415780601f1061171657610100808354040283529160200191611741565b820191906000526020600020905b81548152906001019060200180831161172457829003601f168201915b505050505091509650965096509650965096509650919395979092949650565b60008060000154905081565b3373ffffffffffffffffffffffffffffffffffffffff16600260009054906101000a900473ffffffffffffffffffffffffffffffffffffffff1673ffffffffffffffffffffffffffffffffffffffff16146117fd576040517f08c379a00000000000000000000000000000000000000000000000000000000081526004016117f490612610565b60405180910390fd5b61180760016119d1565b600061181360016119e7565b90506000600460008873ffffffffffffffffffffffffffffffffffffffff1673ffffffffffffffffffffffffffffffffffffffff1681526020019081526020016000209050858160010190805190602001906118709291906119f5565b50848160020190805190602001906118899291906119f5565b50818160000181905550838160030190805190602001906118ab9291906119f5565b5060008160040181905550868160050160006101000a81548173ffffffffffffffffffffffffffffffffffffffff021916908373ffffffffffffffffffffffffffffffffffffffff160217905550828160060190805190602001906119119291906119f5565b506003879080600181540180825580915050600190039060005260206000200160009091909190916101000a81548173ffffffffffffffffffffffffffffffffffffffff021916908373ffffffffffffffffffffffffffffffffffffffff160217905550817fd297f12b256bb8485a6013fb5e302017018123e99a0ebb20756c09e1707b4b9087878785600401548c896040516119b396959493929190612630565b60405180910390a250505050505050565b6000600380549050905090565b6001816000016000828254019250508190555050565b600081600001549050919050565b828054611a019061256c565b90600052602060002090601f016020900481019282611a235760008555611a6a565b82601f10611a3c57805160ff1916838001178555611a6a565b82800160010185558215611a6a579182015b82811115611a69578251825591602001919060010190611a4e565b5b509050611a779190611a7b565b5090565b5b80821115611a94576000816000905550600101611a7c565b5090565b6000819050919050565b611aab81611a98565b82525050565b6000602082019050611ac66000830184611aa2565b92915050565b6000604051905090565b600080fd5b600080fd5b600080fd5b600080fd5b6000601f19601f8301169050919050565b7f4e487b7100000000000000000000000000000000000000000000000000000000600052604160045260246000fd5b611b3382611aea565b810181811067ffffffffffffffff82111715611b5257611b51611afb565b5b80604052505050565b6000611b65611acc565b9050611b718282611b2a565b919050565b600067ffffffffffffffff821115611b9157611b90611afb565b5b611b9a82611aea565b9050602081019050919050565b82818337600083830152505050565b6000611bc9611bc484611b76565b611b5b565b905082815260208101848484011115611be557611be4611ae5565b5b611bf0848285611ba7565b509392505050565b600082601f830112611c0d57611c0c611ae0565b5b8135611c1d848260208601611bb6565b91505092915050565b600073ffffffffffffffffffffffffffffffffffffffff82169050919050565b6000611c5182611c26565b9050919050565b611c6181611c46565b8114611c6c57600080fd5b50565b600081359050611c7e81611c58565b92915050565b60008060008060808587031215611c9e57611c9d611ad6565b5b600085013567ffffffffffffffff811115611cbc57611cbb611adb565b5b611cc887828801611bf8565b945050602085013567ffffffffffffffff811115611ce957611ce8611adb565b5b611cf587828801611bf8565b9350506040611d0687828801611c6f565b925050606085013567ffffffffffffffff811115611d2757611d26611adb565b5b611d3387828801611bf8565b91505092959194509250565b611d4881611a98565b8114611d5357600080fd5b50565b600081359050611d6581611d3f565b92915050565b600060208284031215611d8157611d80611ad6565b5b6000611d8f84828501611d56565b91505092915050565b611da181611c46565b82525050565b6000602082019050611dbc6000830184611d98565b92915050565b60008060408385031215611dd957611dd8611ad6565b5b6000611de785828601611c6f565b9250506020611df885828601611d56565b9150509250929050565b600081519050919050565b600082825260208201905092915050565b6000819050602082019050919050565b611e3781611c46565b82525050565b6000611e498383611e2e565b60208301905092915050565b6000602082019050919050565b6000611e6d82611e02565b611e778185611e0d565b9350611e8283611e1e565b8060005b83811015611eb3578151611e9a8882611e3d565b9750611ea583611e55565b925050600181019050611e86565b5085935050505092915050565b60006020820190508181036000830152611eda8184611e62565b905092915050565b600060208284031215611ef857611ef7611ad6565b5b6000611f0684828501611c6f565b91505092915050565b600081519050919050565b600082825260208201905092915050565b60005b83811015611f49578082015181840152602081019050611f2e565b83811115611f58576000848401525b50505050565b6000611f6982611f0f565b611f738185611f1a565b9350611f83818560208601611f2b565b611f8c81611aea565b840191505092915050565b600060e082019050611fac600083018a611aa2565b8181036020830152611fbe8189611f5e565b90508181036040830152611fd28188611f5e565b90508181036060830152611fe68187611f5e565b9050611ff56080830186611aa2565b61200260a0830185611d98565b81810360c08301526120148184611f5e565b905098975050505050505050565b60008115159050919050565b61203781612022565b82525050565b600060e082019050612052600083018a611aa2565b81810360208301526120648189611f5e565b905081810360408301526120788188611f5e565b90506120876060830187611d98565b612094608083018661202e565b6120a160a0830185611aa2565b81810360c08301526120b38184611f5e565b905098975050505050505050565b6000610100820190506120d7600083018b611aa2565b81810360208301526120e9818a611f5e565b905081810360408301526120fd8189611f5e565b905061210c6060830188611d98565b6121196080830187611aa2565b61212660a083018661202e565b61213360c0830185611aa2565b81810360e08301526121458184611f5e565b90509998505050505050505050565b600060e082019050818103600083015261216e818a611f5e565b905081810360208301526121828189611f5e565b90506121916040830188611aa2565b81810360608301526121a38187611f5e565b90506121b26080830186611aa2565b81810360a08301526121c48185611f5e565b90506121d360c0830184611d98565b98975050505050505050565b600080600080600060a086880312156121fb576121fa611ad6565b5b600061220988828901611c6f565b955050602086013567ffffffffffffffff81111561222a57612229611adb565b5b61223688828901611bf8565b945050604086013567ffffffffffffffff81111561225757612256611adb565b5b61226388828901611bf8565b935050606086013567ffffffffffffffff81111561228457612283611adb565b5b61229088828901611bf8565b925050608086013567ffffffffffffffff8111156122b1576122b0611adb565b5b6122bd88828901611bf8565b9150509295509295909350565b7f4f6e6c7920566f74696e67204f7267616e697a65722063616e2063726561746560008201527f20766f7465720000000000000000000000000000000000000000000000000000602082015250565b6000612326602683611f1a565b9150612331826122ca565b604082019050919050565b6000602082019050818103600083015261235581612319565b9050919050565b600060e0820190508181036000830152612376818a611f5e565b9050818103602083015261238a8189611f5e565b90506123996040830188611d98565b6123a66060830187611aa2565b6123b3608083018661202e565b6123c060a0830185611aa2565b81810360c08301526123d28184611f5e565b905098975050505050505050565b7f596f75206861766520616c726561647920766f74656400000000000000000000600082015250565b6000612416601683611f1a565b9150612421826123e0565b602082019050919050565b6000602082019050818103600083015261244581612409565b9050919050565b7f596f7520617265206e6f7420616c6c6f77656420746f20766f74650000000000600082015250565b6000612482601b83611f1a565b915061248d8261244c565b602082019050919050565b600060208201905081810360008301526124b181612475565b9050919050565b7f4e487b7100000000000000000000000000000000000000000000000000000000600052601160045260246000fd5b60006124f282611a98565b91506124fd83611a98565b9250827fffffffffffffffffffffffffffffffffffffffffffffffffffffffffffffffff03821115612532576125316124b8565b5b828201905092915050565b7f4e487b7100000000000000000000000000000000000000000000000000000000600052602260045260246000fd5b6000600282049050600182168061258457607f821691505b602082108114156125985761259761253d565b5b50919050565b7f4f6e6c7920566f74696e67204f7267616e697a65722063616e2063726561746560008201527f2063616e64696461746500000000000000000000000000000000000000000000602082015250565b60006125fa602a83611f1a565b91506126058261259e565b604082019050919050565b60006020820190508181036000830152612629816125ed565b9050919050565b600060c082019050818103600083015261264a8189611f5e565b9050818103602083015261265e8188611f5e565b905081810360408301526126728187611f5e565b90506126816060830186611aa2565b61268e6080830185611d98565b81810360a08301526126a08184611f5e565b905097965050505050505056fea2646970667358221220d9915f4da19d5b3fca0129965d837412fb12e5c408bacee4c3eb2c899cd0cb7464736f6c63430008090033",
  "linkReferences": {},
  "deployedLinkReferences": {}
}